{
  "contractName": "TodoList",
  "abi": [
    {
      "constant": true,
      "inputs": [],
      "name": "taskCount",
      "outputs": [
        {
          "name": "",
          "type": "uint256"
        }
      ],
      "payable": false,
      "stateMutability": "view",
      "type": "function",
      "signature": "0xb6cb58a5"
    }
  ],
  "bytecode": "0x608060405260008055348015601357600080fd5b50609e806100226000396000f3fe608060405260043610603f576000357c0100000000000000000000000000000000000000000000000000000000900463ffffffff168063b6cb58a5146044575b600080fd5b348015604f57600080fd5b506056606c565b6040518082815260200191505060405180910390f35b6000548156fea165627a7a72305820adea59a22f74a08540ec8d9527408cf23a6be7f90f3effab8e6fafb0fba86a9a0029",
  "source": "pragma solidity ^0.5.0;\r\n\r\ncontract TodoList {\r\n\t// similar to class variables in oop, these state variables represent the state of this smart contract and scopes the whole project\r\n\t// public enables reading of this state variable from outside this contract\r\n\tuint public taskCount = 0;\r\n\r\n\r\n}",
  "sourcePath": "C:/Users/hardi/Documents/GitHub/Todoeth/contracts/TodoList.sol",
  "compiler": {
    "name": "solc",
    "version": "0.5.0+commit.1d4f565a.Emscripten.clang"
  },
  "schemaVersion": "3.0.1",
  "updatedAt": "2022-01-29T15:57:57.868Z",
  "devdoc": {
    "methods": {}
  },
  "userdoc": {
    "methods": {}
  }
}